{
	"data": {
		"bytecode": {
			"linkReferences": {},
			"object": "60806040525f80553480156011575f80fd5b506103b98061001f5f395ff3fe608060405234801561000f575f80fd5b5060043610610060575f3560e01c80631003e2d2146100645780631dc05f171461008057806333c42b661461009c5780633e823f79146100b85780636d4ce63c146100d4578063c6888fa1146100f2575b5f80fd5b61007e600480360381019061007991906101cf565b61010e565b005b61009a600480360381019061009591906101cf565b610128565b005b6100b660048036038101906100b191906101cf565b610142565b005b6100d260048036038101906100cd91906101cf565b61015c565b005b6100dc610176565b6040516100e99190610209565b60405180910390f35b61010c600480360381019061010791906101cf565b61017e565b005b805f8082825461011e919061024f565b9250508190555050565b805f808282546101389190610282565b9250508190555050565b805f8082825461015291906102e2565b9250508190555050565b805f8082825461016c9190610312565b9250508190555050565b5f8054905090565b805f8082825461018e9190610342565b9250508190555050565b5f80fd5b5f819050919050565b6101ae8161019c565b81146101b8575f80fd5b50565b5f813590506101c9816101a5565b92915050565b5f602082840312156101e4576101e3610198565b5b5f6101f1848285016101bb565b91505092915050565b6102038161019c565b82525050565b5f60208201905061021c5f8301846101fa565b92915050565b7f4e487b71000000000000000000000000000000000000000000000000000000005f52601160045260245ffd5b5f6102598261019c565b91506102648361019c565b925082820190508082111561027c5761027b610222565b5b92915050565b5f61028c8261019c565b91506102978361019c565b92508282039050818111156102af576102ae610222565b5b92915050565b7f4e487b71000000000000000000000000000000000000000000000000000000005f52601260045260245ffd5b5f6102ec8261019c565b91506102f78361019c565b925082610307576103066102b5565b5b828206905092915050565b5f61031c8261019c565b91506103278361019c565b925082610337576103366102b5565b5b828204905092915050565b5f61034c8261019c565b91506103578361019c565b92508282026103658161019c565b9150828204841483151761037c5761037b610222565b5b509291505056fea26469706673582212207dc16e2add73f1e32b8fd165bc71f7dcb7813ab6b2b77f5e7fd069e9d150da3f64736f6c634300081a0033",
			"opcodes": "PUSH1 0x80 PUSH1 0x40 MSTORE PUSH0 DUP1 SSTORE CALLVALUE DUP1 ISZERO PUSH1 0x11 JUMPI PUSH0 DUP1 REVERT JUMPDEST POP PUSH2 0x3B9 DUP1 PUSH2 0x1F PUSH0 CODECOPY PUSH0 RETURN INVALID PUSH1 0x80 PUSH1 0x40 MSTORE CALLVALUE DUP1 ISZERO PUSH2 0xF JUMPI PUSH0 DUP1 REVERT JUMPDEST POP PUSH1 0x4 CALLDATASIZE LT PUSH2 0x60 JUMPI PUSH0 CALLDATALOAD PUSH1 0xE0 SHR DUP1 PUSH4 0x1003E2D2 EQ PUSH2 0x64 JUMPI DUP1 PUSH4 0x1DC05F17 EQ PUSH2 0x80 JUMPI DUP1 PUSH4 0x33C42B66 EQ PUSH2 0x9C JUMPI DUP1 PUSH4 0x3E823F79 EQ PUSH2 0xB8 JUMPI DUP1 PUSH4 0x6D4CE63C EQ PUSH2 0xD4 JUMPI DUP1 PUSH4 0xC6888FA1 EQ PUSH2 0xF2 JUMPI JUMPDEST PUSH0 DUP1 REVERT JUMPDEST PUSH2 0x7E PUSH1 0x4 DUP1 CALLDATASIZE SUB DUP2 ADD SWAP1 PUSH2 0x79 SWAP2 SWAP1 PUSH2 0x1CF JUMP JUMPDEST PUSH2 0x10E JUMP JUMPDEST STOP JUMPDEST PUSH2 0x9A PUSH1 0x4 DUP1 CALLDATASIZE SUB DUP2 ADD SWAP1 PUSH2 0x95 SWAP2 SWAP1 PUSH2 0x1CF JUMP JUMPDEST PUSH2 0x128 JUMP JUMPDEST STOP JUMPDEST PUSH2 0xB6 PUSH1 0x4 DUP1 CALLDATASIZE SUB DUP2 ADD SWAP1 PUSH2 0xB1 SWAP2 SWAP1 PUSH2 0x1CF JUMP JUMPDEST PUSH2 0x142 JUMP JUMPDEST STOP JUMPDEST PUSH2 0xD2 PUSH1 0x4 DUP1 CALLDATASIZE SUB DUP2 ADD SWAP1 PUSH2 0xCD SWAP2 SWAP1 PUSH2 0x1CF JUMP JUMPDEST PUSH2 0x15C JUMP JUMPDEST STOP JUMPDEST PUSH2 0xDC PUSH2 0x176 JUMP JUMPDEST PUSH1 0x40 MLOAD PUSH2 0xE9 SWAP2 SWAP1 PUSH2 0x209 JUMP JUMPDEST PUSH1 0x40 MLOAD DUP1 SWAP2 SUB SWAP1 RETURN JUMPDEST PUSH2 0x10C PUSH1 0x4 DUP1 CALLDATASIZE SUB DUP2 ADD SWAP1 PUSH2 0x107 SWAP2 SWAP1 PUSH2 0x1CF JUMP JUMPDEST PUSH2 0x17E JUMP JUMPDEST STOP JUMPDEST DUP1 PUSH0 DUP1 DUP3 DUP3 SLOAD PUSH2 0x11E SWAP2 SWAP1 PUSH2 0x24F JUMP JUMPDEST SWAP3 POP POP DUP2 SWAP1 SSTORE POP POP JUMP JUMPDEST DUP1 PUSH0 DUP1 DUP3 DUP3 SLOAD PUSH2 0x138 SWAP2 SWAP1 PUSH2 0x282 JUMP JUMPDEST SWAP3 POP POP DUP2 SWAP1 SSTORE POP POP JUMP JUMPDEST DUP1 PUSH0 DUP1 DUP3 DUP3 SLOAD PUSH2 0x152 SWAP2 SWAP1 PUSH2 0x2E2 JUMP JUMPDEST SWAP3 POP POP DUP2 SWAP1 SSTORE POP POP JUMP JUMPDEST DUP1 PUSH0 DUP1 DUP3 DUP3 SLOAD PUSH2 0x16C SWAP2 SWAP1 PUSH2 0x312 JUMP JUMPDEST SWAP3 POP POP DUP2 SWAP1 SSTORE POP POP JUMP JUMPDEST PUSH0 DUP1 SLOAD SWAP1 POP SWAP1 JUMP JUMPDEST DUP1 PUSH0 DUP1 DUP3 DUP3 SLOAD PUSH2 0x18E SWAP2 SWAP1 PUSH2 0x342 JUMP JUMPDEST SWAP3 POP POP DUP2 SWAP1 SSTORE POP POP JUMP JUMPDEST PUSH0 DUP1 REVERT JUMPDEST PUSH0 DUP2 SWAP1 POP SWAP2 SWAP1 POP JUMP JUMPDEST PUSH2 0x1AE DUP2 PUSH2 0x19C JUMP JUMPDEST DUP2 EQ PUSH2 0x1B8 JUMPI PUSH0 DUP1 REVERT JUMPDEST POP JUMP JUMPDEST PUSH0 DUP2 CALLDATALOAD SWAP1 POP PUSH2 0x1C9 DUP2 PUSH2 0x1A5 JUMP JUMPDEST SWAP3 SWAP2 POP POP JUMP JUMPDEST PUSH0 PUSH1 0x20 DUP3 DUP5 SUB SLT ISZERO PUSH2 0x1E4 JUMPI PUSH2 0x1E3 PUSH2 0x198 JUMP JUMPDEST JUMPDEST PUSH0 PUSH2 0x1F1 DUP5 DUP3 DUP6 ADD PUSH2 0x1BB JUMP JUMPDEST SWAP2 POP POP SWAP3 SWAP2 POP POP JUMP JUMPDEST PUSH2 0x203 DUP2 PUSH2 0x19C JUMP JUMPDEST DUP3 MSTORE POP POP JUMP JUMPDEST PUSH0 PUSH1 0x20 DUP3 ADD SWAP1 POP PUSH2 0x21C PUSH0 DUP4 ADD DUP5 PUSH2 0x1FA JUMP JUMPDEST SWAP3 SWAP2 POP POP JUMP JUMPDEST PUSH32 0x4E487B7100000000000000000000000000000000000000000000000000000000 PUSH0 MSTORE PUSH1 0x11 PUSH1 0x4 MSTORE PUSH1 0x24 PUSH0 REVERT JUMPDEST PUSH0 PUSH2 0x259 DUP3 PUSH2 0x19C JUMP JUMPDEST SWAP2 POP PUSH2 0x264 DUP4 PUSH2 0x19C JUMP JUMPDEST SWAP3 POP DUP3 DUP3 ADD SWAP1 POP DUP1 DUP3 GT ISZERO PUSH2 0x27C JUMPI PUSH2 0x27B PUSH2 0x222 JUMP JUMPDEST JUMPDEST SWAP3 SWAP2 POP POP JUMP JUMPDEST PUSH0 PUSH2 0x28C DUP3 PUSH2 0x19C JUMP JUMPDEST SWAP2 POP PUSH2 0x297 DUP4 PUSH2 0x19C JUMP JUMPDEST SWAP3 POP DUP3 DUP3 SUB SWAP1 POP DUP2 DUP2 GT ISZERO PUSH2 0x2AF JUMPI PUSH2 0x2AE PUSH2 0x222 JUMP JUMPDEST JUMPDEST SWAP3 SWAP2 POP POP JUMP JUMPDEST PUSH32 0x4E487B7100000000000000000000000000000000000000000000000000000000 PUSH0 MSTORE PUSH1 0x12 PUSH1 0x4 MSTORE PUSH1 0x24 PUSH0 REVERT JUMPDEST PUSH0 PUSH2 0x2EC DUP3 PUSH2 0x19C JUMP JUMPDEST SWAP2 POP PUSH2 0x2F7 DUP4 PUSH2 0x19C JUMP JUMPDEST SWAP3 POP DUP3 PUSH2 0x307 JUMPI PUSH2 0x306 PUSH2 0x2B5 JUMP JUMPDEST JUMPDEST DUP3 DUP3 MOD SWAP1 POP SWAP3 SWAP2 POP POP JUMP JUMPDEST PUSH0 PUSH2 0x31C DUP3 PUSH2 0x19C JUMP JUMPDEST SWAP2 POP PUSH2 0x327 DUP4 PUSH2 0x19C JUMP JUMPDEST SWAP3 POP DUP3 PUSH2 0x337 JUMPI PUSH2 0x336 PUSH2 0x2B5 JUMP JUMPDEST JUMPDEST DUP3 DUP3 DIV SWAP1 POP SWAP3 SWAP2 POP POP JUMP JUMPDEST PUSH0 PUSH2 0x34C DUP3 PUSH2 0x19C JUMP JUMPDEST SWAP2 POP PUSH2 0x357 DUP4 PUSH2 0x19C JUMP JUMPDEST SWAP3 POP DUP3 DUP3 MUL PUSH2 0x365 DUP2 PUSH2 0x19C JUMP JUMPDEST SWAP2 POP DUP3 DUP3 DIV DUP5 EQ DUP4 ISZERO OR PUSH2 0x37C JUMPI PUSH2 0x37B PUSH2 0x222 JUMP JUMPDEST JUMPDEST POP SWAP3 SWAP2 POP POP JUMP INVALID LOG2 PUSH5 0x6970667358 0x22 SLT KECCAK256 PUSH30 0xC16E2ADD73F1E32B8FD165BC71F7DCB7813AB6B2B77F5E7FD069E9D150DA EXTCODEHASH PUSH5 0x736F6C6343 STOP ADDMOD BYTE STOP CALLER "
		},
		"gasEstimates": {
			"creation": {
				"codeDepositCost": "190600",
				"executionCost": "5235",
				"totalCost": "195835"
			},
			"external": {
				"add(uint256)": "infinite",
				"divide(uint256)": "infinite",
				"get()": "2498",
				"modulus(uint256)": "infinite",
				"multiply(uint256)": "infinite",
				"subtract(uint256)": "infinite"
			}
		},
		"methodIdentifiers": {
			"add(uint256)": "1003e2d2",
			"divide(uint256)": "3e823f79",
			"get()": "6d4ce63c",
			"modulus(uint256)": "33c42b66",
			"multiply(uint256)": "c6888fa1",
			"subtract(uint256)": "1dc05f17"
		}
	},
	"abi": [
		{
			"inputs": [
				{
					"internalType": "uint256",
					"name": "num",
					"type": "uint256"
				}
			],
			"name": "add",
			"outputs": [],
			"stateMutability": "nonpayable",
			"type": "function"
		},
		{
			"inputs": [
				{
					"internalType": "uint256",
					"name": "num",
					"type": "uint256"
				}
			],
			"name": "divide",
			"outputs": [],
			"stateMutability": "nonpayable",
			"type": "function"
		},
		{
			"inputs": [],
			"name": "get",
			"outputs": [
				{
					"internalType": "uint256",
					"name": "",
					"type": "uint256"
				}
			],
			"stateMutability": "view",
			"type": "function"
		},
		{
			"inputs": [
				{
					"internalType": "uint256",
					"name": "num",
					"type": "uint256"
				}
			],
			"name": "modulus",
			"outputs": [],
			"stateMutability": "nonpayable",
			"type": "function"
		},
		{
			"inputs": [
				{
					"internalType": "uint256",
					"name": "num",
					"type": "uint256"
				}
			],
			"name": "multiply",
			"outputs": [],
			"stateMutability": "nonpayable",
			"type": "function"
		},
		{
			"inputs": [
				{
					"internalType": "uint256",
					"name": "num",
					"type": "uint256"
				}
			],
			"name": "subtract",
			"outputs": [],
			"stateMutability": "nonpayable",
			"type": "function"
		}
	]
}